{
  "contractName": "SubToken",
  "abi": [
    {
      "inputs": [
        {
          "name": "_address",
          "type": "address"
        }
      ],
      "payable": true,
      "stateMutability": "payable",
      "type": "constructor"
    },
    {
      "anonymous": false,
      "inputs": [
        {
          "indexed": true,
          "name": "from",
          "type": "address"
        },
        {
          "indexed": true,
          "name": "to",
          "type": "address"
        },
        {
          "indexed": false,
          "name": "tokens",
          "type": "uint256"
        }
      ],
      "name": "Transfer",
      "type": "event"
    },
    {
      "anonymous": false,
      "inputs": [
        {
          "indexed": true,
          "name": "tokenOwner",
          "type": "address"
        },
        {
          "indexed": true,
          "name": "spender",
          "type": "address"
        },
        {
          "indexed": false,
          "name": "tokens",
          "type": "uint256"
        }
      ],
      "name": "Approval",
      "type": "event"
    },
    {
      "constant": true,
      "inputs": [],
      "name": "name",
      "outputs": [
        {
          "name": "",
          "type": "string"
        }
      ],
      "payable": false,
      "stateMutability": "view",
      "type": "function"
    },
    {
      "constant": true,
      "inputs": [],
      "name": "symbol",
      "outputs": [
        {
          "name": "",
          "type": "string"
        }
      ],
      "payable": false,
      "stateMutability": "view",
      "type": "function"
    },
    {
      "constant": true,
      "inputs": [],
      "name": "decimal",
      "outputs": [
        {
          "name": "",
          "type": "uint256"
        }
      ],
      "payable": false,
      "stateMutability": "view",
      "type": "function"
    },
    {
      "constant": true,
      "inputs": [],
      "name": "totalSupply",
      "outputs": [
        {
          "name": "",
          "type": "uint256"
        }
      ],
      "payable": false,
      "stateMutability": "view",
      "type": "function"
    },
    {
      "constant": true,
      "inputs": [
        {
          "name": "account",
          "type": "address"
        }
      ],
      "name": "balanceOf",
      "outputs": [
        {
          "name": "",
          "type": "uint256"
        }
      ],
      "payable": false,
      "stateMutability": "view",
      "type": "function"
    },
    {
      "constant": false,
      "inputs": [
        {
          "name": "recipient",
          "type": "address"
        },
        {
          "name": "amount",
          "type": "uint256"
        }
      ],
      "name": "transfer",
      "outputs": [
        {
          "name": "",
          "type": "bool"
        }
      ],
      "payable": false,
      "stateMutability": "nonpayable",
      "type": "function"
    }
  ],
  "bytecode": "0x60806040526040516020806109f58339810180604052602081101561002357600080fd5b8101908080519060200190929190505050806000806101000a81548173ffffffffffffffffffffffffffffffffffffffff021916908373ffffffffffffffffffffffffffffffffffffffff16021790555050610971806100846000396000f3fe608060405234801561001057600080fd5b50600436106100625760003560e01c806306fdde031461006757806318160ddd146100ea57806370a082311461010857806376809ce31461016057806395d89b411461017e578063a9059cbb14610201575b600080fd5b61006f610267565b6040518080602001828103825283818151815260200191508051906020019080838360005b838110156100af578082015181840152602081019050610094565b50505050905090810190601f1680156100dc5780820380516001836020036101000a031916815260200191505b509250505060405180910390f35b6100f261039d565b6040518082815260200191505060405180910390f35b61014a6004803603602081101561011e57600080fd5b81019080803573ffffffffffffffffffffffffffffffffffffffff16906020019092919050505061047d565b6040518082815260200191505060405180910390f35b610168610593565b6040518082815260200191505060405180910390f35b610186610676565b6040518080602001828103825283818151815260200191508051906020019080838360005b838110156101c65780820151818401526020810190506101ab565b50505050905090810190601f1680156101f35780820380516001836020036101000a031916815260200191505b509250505060405180910390f35b61024d6004803603604081101561021757600080fd5b81019080803573ffffffffffffffffffffffffffffffffffffffff169060200190929190803590602001909291905050506107ac565b604051808215151515815260200191505060405180910390f35b60606000809054906101000a900473ffffffffffffffffffffffffffffffffffffffff1673ffffffffffffffffffffffffffffffffffffffff166301984892306040518263ffffffff1660e01b8152600401808273ffffffffffffffffffffffffffffffffffffffff1673ffffffffffffffffffffffffffffffffffffffff16815260200191505060006040518083038186803b15801561030757600080fd5b505afa15801561031b573d6000803e3d6000fd5b505050506040513d6000823e3d601f19601f82011682018060405250602081101561034557600080fd5b81019080805164010000000081111561035d57600080fd5b8281019050602081018481111561037357600080fd5b815185600182028301116401000000008211171561039057600080fd5b5050929190505050905090565b60008060009054906101000a900473ffffffffffffffffffffffffffffffffffffffff1673ffffffffffffffffffffffffffffffffffffffff1663e4dc2aa4306040518263ffffffff1660e01b8152600401808273ffffffffffffffffffffffffffffffffffffffff1673ffffffffffffffffffffffffffffffffffffffff16815260200191505060206040518083038186803b15801561043d57600080fd5b505afa158015610451573d6000803e3d6000fd5b505050506040513d602081101561046757600080fd5b8101908080519060200190929190505050905090565b60008060009054906101000a900473ffffffffffffffffffffffffffffffffffffffff1673ffffffffffffffffffffffffffffffffffffffff1663f7888aec30846040518363ffffffff1660e01b8152600401808373ffffffffffffffffffffffffffffffffffffffff1673ffffffffffffffffffffffffffffffffffffffff1681526020018273ffffffffffffffffffffffffffffffffffffffff1673ffffffffffffffffffffffffffffffffffffffff1681526020019250505060206040518083038186803b15801561055157600080fd5b505afa158015610565573d6000803e3d6000fd5b505050506040513d602081101561057b57600080fd5b81019080805190602001909291905050509050919050565b60008060009054906101000a900473ffffffffffffffffffffffffffffffffffffffff1673ffffffffffffffffffffffffffffffffffffffff16630f4d2998306040518263ffffffff1660e01b8152600401808273ffffffffffffffffffffffffffffffffffffffff1673ffffffffffffffffffffffffffffffffffffffff16815260200191505060206040518083038186803b15801561063357600080fd5b505afa158015610647573d6000803e3d6000fd5b505050506040513d602081101561065d57600080fd5b810190808051906020019092919050505060ff16905090565b60606000809054906101000a900473ffffffffffffffffffffffffffffffffffffffff1673ffffffffffffffffffffffffffffffffffffffff1663a86e3576306040518263ffffffff1660e01b8152600401808273ffffffffffffffffffffffffffffffffffffffff1673ffffffffffffffffffffffffffffffffffffffff16815260200191505060006040518083038186803b15801561071657600080fd5b505afa15801561072a573d6000803e3d6000fd5b505050506040513d6000823e3d601f19601f82011682018060405250602081101561075457600080fd5b81019080805164010000000081111561076c57600080fd5b8281019050602081018481111561078257600080fd5b815185600182028301116401000000008211171561079f57600080fd5b5050929190505050905090565b60008060009054906101000a900473ffffffffffffffffffffffffffffffffffffffff1673ffffffffffffffffffffffffffffffffffffffff1663f18d03cc303386866040518563ffffffff1660e01b8152600401808573ffffffffffffffffffffffffffffffffffffffff1673ffffffffffffffffffffffffffffffffffffffff1681526020018473ffffffffffffffffffffffffffffffffffffffff1673ffffffffffffffffffffffffffffffffffffffff1681526020018373ffffffffffffffffffffffffffffffffffffffff1673ffffffffffffffffffffffffffffffffffffffff168152602001828152602001945050505050600060405180830381600087803b1580156108be57600080fd5b505af11580156108d2573d6000803e3d6000fd5b505050508273ffffffffffffffffffffffffffffffffffffffff163373ffffffffffffffffffffffffffffffffffffffff167fddf252ad1be2c89b69c2b068fc378daa952ba7f163c4a11628f55a4df523b3ef846040518082815260200191505060405180910390a3600190509291505056fea165627a7a72305820b50be15e29e6d32067f916632af37a752966daff0f00b51809d7ab1a9a8fa3ab0029",
  "source": "pragma solidity ^0.5.0;  \n//import 'https://github.com/OpenZeppelin/openzeppelin-contracts/blob/master/contracts/math/SafeMath.sol';  \nimport \"../node_modules/openzeppelin-solidity/contracts/math/SafeMath.sol\";   \n\ncontract SubToken{  \n    MainContract mc; \n     \n    constructor(address _address) public payable {   \n       mc= MainContract(_address); \n    }   \n     \n    function name() view public returns(string memory){ \n        return mc.name(address(this)); \n    } \n    function symbol() view public returns(string memory){ \n        return mc.symbol(address(this)); \n    } \n    function decimal() view public returns(uint){ \n        return mc.decimal(address(this)); \n    } \n    function totalSupply() view public returns(uint){ \n        return mc.totalSupply(address(this)); \n    } \n    \n    function balanceOf(address account) view public returns(uint){ \n        return mc.balanceOf(address(this), account); //msg.sender\n    } \n     \n    function transfer(address recipient , uint amount) public returns (bool){ \n        mc.transfer(address(this), msg.sender, recipient, amount);\n        emit Transfer(msg.sender, recipient, amount);\n        return true; \n    } \n    event Transfer(address indexed from, address indexed to, uint tokens);  \n    event Approval(address indexed tokenOwner, address indexed spender, uint tokens);\n}  \ncontract MainContract { \n \n    using SafeMath for uint; \n  \n    struct token{  \n        string  name;  \n        string   symbol;  \n        uint8  decimals;  \n        uint  totalSupply;  \n        mapping (address => uint)  _balances;\n        mapping (address => mapping (address => uint256))  _allowances;\n    }\n    \n    mapping(address => token) public tokens; \n\n    function createNewContract(string memory _name,string memory _symbol,uint8 _decimals,uint _totalSupply) public returns(address youraddress){  \n        SubToken st = new SubToken(address(this));\n        tokens[address(st)] = token(_name,_symbol,_decimals,_totalSupply);\n        tokens[address(st)]._balances[msg.sender]=_totalSupply;\n        return address(st);\n    }  \n     \n    function name(address _concractAddress) public view returns(string memory){ \n        return tokens[_concractAddress].name; \n    } \n    function symbol(address _concractAddress) public view returns(string memory){ \n        return tokens[_concractAddress].symbol; \n    } \n    function decimal(address _concractAddress) public view returns(uint8){ \n        return tokens[_concractAddress].decimals; \n    } \n    function totalSupply(address _concractAddress) public view returns(uint){ \n        return tokens[_concractAddress].totalSupply; \n    } \n    function balanceOf(address _concractAddress, address account) public view returns(uint){\n        return tokens[_concractAddress]._balances[account];\n    }\n    \n    function transfer(address _concractAddress, address sender, address recipient, uint amount) public { \n       require(sender != address(0));\n       require(recipient != address(0));\n       \n       tokens[_concractAddress]._balances[sender] =  tokens[_concractAddress]._balances[sender].sub(amount);\n       tokens[_concractAddress]._balances[recipient] =  tokens[_concractAddress]._balances[recipient].add(amount);\n       \n       emit Transfer(sender, recipient, amount); \n    } \n\n  \n    event Transfer(address indexed _from, address indexed _to, uint256 _value); \n    event Approval(address indexed _owner, address indexed _spender, uint256 _value); \n  \n} \n",
  "sourcePath": "/Users/macxbookpro/Desktop/proje1/contracts/smart.sol",
  "compiler": {
    "name": "solc",
    "version": "0.5.8+commit.23d335f2.Emscripten.clang"
  },
  "schemaVersion": "3.0.11",
  "updatedAt": "2019-09-06T08:03:00.625Z",
  "devdoc": {
    "methods": {}
  },
  "userdoc": {
    "methods": {}
  }
}